{
  "contractName": "Tickets",
  "abi": [
    {
      "inputs": [],
      "payable": false,
      "stateMutability": "nonpayable",
      "type": "constructor"
    },
    {
      "constant": true,
      "inputs": [],
      "name": "owner",
      "outputs": [
        {
          "internalType": "address",
          "name": "",
          "type": "address"
        }
      ],
      "payable": false,
      "stateMutability": "view",
      "type": "function"
    },
    {
      "constant": true,
      "inputs": [
        {
          "internalType": "uint256",
          "name": "",
          "type": "uint256"
        }
      ],
      "name": "tickets",
      "outputs": [
        {
          "internalType": "uint256",
          "name": "id",
          "type": "uint256"
        },
        {
          "internalType": "uint256",
          "name": "price",
          "type": "uint256"
        },
        {
          "internalType": "address",
          "name": "owner",
          "type": "address"
        }
      ],
      "payable": false,
      "stateMutability": "view",
      "type": "function"
    },
    {
      "constant": false,
      "inputs": [
        {
          "internalType": "uint256",
          "name": "_index",
          "type": "uint256"
        }
      ],
      "name": "buyTicket",
      "outputs": [],
      "payable": true,
      "stateMutability": "payable",
      "type": "function"
    }
  ],
  "bytecode": "0x6080604052600080546001600160a01b0319163317905534801561002257600080fd5b50600080546001600160a01b031916331781555b600a8110156100af5780600182600a811061004d57fe5b600302015567016345785d8a0000600182600a811061006857fe5b60030201600101819055506000600182600a811061008257fe5b6003020160020180546001600160a01b0319166001600160a01b0392909216919091179055600101610036565b506101e9806100bf6000396000f3fe6080604052600436106100345760003560e01c806350b447121461003957806367dd74ca1461008a5780638da5cb5b146100a9575b600080fd5b34801561004557600080fd5b506100636004803603602081101561005c57600080fd5b50356100da565b6040805193845260208401929092526001600160a01b031682820152519081900360600190f35b6100a7600480360360208110156100a057600080fd5b5035610107565b005b3480156100b557600080fd5b506100be6101a5565b604080516001600160a01b039092168252519081900360200190f35b600181600a81106100e757fe5b60030201805460018201546002909201549092506001600160a01b031683565b600a81108015610115575060015b61011e57600080fd5b6000600182600a811061012d57fe5b60030201600201546001600160a01b03161461014857600080fd5b600181600a811061015557fe5b600302016001015434101561016957600080fd5b33600182600a811061017757fe5b6003020160020160006101000a8154816001600160a01b0302191690836001600160a01b0316021790555050565b6000546001600160a01b03168156fea265627a7a7231582070ca652b5cd58bac8f518f03bf97386834edc6ea57e61c0d45c5a7ac4667cd5264736f6c63430005100032",
  "source": "// SPDX-Liences-Identifier: MIT;\npragma solidity >=0.4.22 <0.7.0;\n\ncontract Tickets {\n  uint256 constant TOTAL_PRICE = 10;\n  address public owner = msg.sender;\n\n  struct Ticket {\n    uint256 id;\n    uint256 price;\n    address owner;\n  }\n\n  Ticket[TOTAL_PRICE] public tickets;\n\n  constructor() public {\n    owner = msg.sender;\n\n    for (uint256 i = 0; i < tickets.length; i++) {\n      tickets[i].id = i;\n      tickets[i].price = 1e17; // 0.1ETH\n      tickets[i].owner = address(0x0);\n    }\n  }\n\n\n  function buyTicket(uint256 _index) external payable {\n    require(_index < TOTAL_PRICE && _index >= 0);\n    require(tickets[_index].owner == address(0x0));\n    require(msg.value >= tickets[_index].price);\n    tickets[_index].owner = msg.sender;\n  }\n\n}\n",
  "sourcePath": "/Users/thangphan/Projects/web3-tickets/contracts/Tickets.sol",
  "compiler": {
    "name": "solc",
    "version": "0.5.16+commit.9c3226ce.Emscripten.clang"
  },
  "schemaVersion": "3.4.9",
  "updatedAt": "2022-09-16T15:42:04.532Z",
  "networkType": "ethereum",
  "devdoc": {
    "methods": {}
  },
  "userdoc": {
    "methods": {}
  }
}